:04000000FEEFFFF020
:020000040001F9
:10FF8E000001D0EFFFF0600E0001AD6F080EB16FF3
:10FF9E001200CAECFFF0000ECB6E000E0401286FAB
:10FFAE00000E296F000E2C6F000E2A6F2B69080EA3
:10FFBE00C36E110E026E3C0E016ECB0EE82EFED7F6
:10FFCE00012EFCD7022EFAD700F0000EC36E110ED2
:10FFDE00026E3C0E016ECB0EE82EFED7012EFCD724
:10FFEE00022EFAD700F0DEEFFFF0FEEFFFF0C7EFC4
:02FFFE00FFF012
:020000040020DA
:10000000FF0FFF0FFF0FFF0FFF0FFF0FFF0FFF0F80
:10001000FF0FFF0FFF0FFF0FFF0FFF0FFF0FFF0F70
:10002000FF0FFF0FFF0FFF0FFF0FFF0FFF0FFF0F60
:10003000FF0FFF0FFF0FFF0FFF0FFF0FFF0FFF0F50
:020000040030CA
:0A0000008CDDFFFF9FFFDFFFFFFF15
:00000001FF
